{
    "abi": [
        {
            "inputs": [
                {
                    "internalType": "address",
                    "name": "_limitOrderExecutor",
                    "type": "address"
                },
                {
                    "internalType": "address",
                    "name": "_sandboxLimitOrderBook",
                    "type": "address"
                }
            ],
            "stateMutability": "nonpayable",
            "type": "constructor"
        },
        {
            "inputs": [],
            "name": "MsgSenderIsNotLimitOrderExecutor",
            "type": "error"
        },
        {
            "inputs": [
                {
                    "internalType": "uint256",
                    "name": "callIndex",
                    "type": "uint256"
                }
            ],
            "name": "SandboxCallFailed",
            "type": "error"
        },
        {
            "inputs": [
                {
                    "components": [
                        {
                            "internalType": "bytes32[][]",
                            "name": "orderIdBundles",
                            "type": "bytes32[][]"
                        },
                        {
                            "internalType": "uint128[]",
                            "name": "fillAmounts",
                            "type": "uint128[]"
                        },
                        {
                            "internalType": "address[]",
                            "name": "transferAddresses",
                            "type": "address[]"
                        },
                        {
                            "components": [
                                {
                                    "internalType": "address",
                                    "name": "target",
                                    "type": "address"
                                },
                                {
                                    "internalType": "bytes",
                                    "name": "callData",
                                    "type": "bytes"
                                }
                            ],
                            "internalType": "struct SandboxLimitOrderRouter.Call[]",
                            "name": "calls",
                            "type": "tuple[]"
                        }
                    ],
                    "internalType": "struct SandboxLimitOrderRouter.SandboxMulticall",
                    "name": "sandboxMultiCall",
                    "type": "tuple"
                }
            ],
            "name": "executeSandboxMulticall",
            "outputs": [],
            "stateMutability": "nonpayable",
            "type": "function"
        },
        {
            "inputs": [
                {
                    "components": [
                        {
                            "internalType": "bytes32[][]",
                            "name": "orderIdBundles",
                            "type": "bytes32[][]"
                        },
                        {
                            "internalType": "uint128[]",
                            "name": "fillAmounts",
                            "type": "uint128[]"
                        },
                        {
                            "internalType": "address[]",
                            "name": "transferAddresses",
                            "type": "address[]"
                        },
                        {
                            "components": [
                                {
                                    "internalType": "address",
                                    "name": "target",
                                    "type": "address"
                                },
                                {
                                    "internalType": "bytes",
                                    "name": "callData",
                                    "type": "bytes"
                                }
                            ],
                            "internalType": "struct SandboxLimitOrderRouter.Call[]",
                            "name": "calls",
                            "type": "tuple[]"
                        }
                    ],
                    "internalType": "struct SandboxLimitOrderRouter.SandboxMulticall",
                    "name": "sandboxMulticall",
                    "type": "tuple"
                }
            ],
            "name": "sandboxRouterCallback",
            "outputs": [],
            "stateMutability": "nonpayable",
            "type": "function"
        },
        {
            "inputs": [
                {
                    "internalType": "int256",
                    "name": "amount0Delta",
                    "type": "int256"
                },
                {
                    "internalType": "int256",
                    "name": "amount1Delta",
                    "type": "int256"
                },
                {
                    "internalType": "bytes",
                    "name": "data",
                    "type": "bytes"
                }
            ],
            "name": "uniswapV3SwapCallback",
            "outputs": [],
            "stateMutability": "nonpayable",
            "type": "function"
        }
    ],
    "bytecode": {
        "object": "0x60c060405234801561001057600080fd5b50604051610ccc380380610ccc83398101604081905261002f91610062565b6001600160a01b039182166080521660a052610095565b80516001600160a01b038116811461005d57600080fd5b919050565b6000806040838503121561007557600080fd5b61007e83610046565b915061008c60208401610046565b90509250929050565b60805160a051610c136100b960003960006101d201526000608c0152610c136000f3fe608060405234801561001057600080fd5b50600436106100415760003560e01c8063029de720146100465780634d50511b1461005b578063fa461e331461006e575b600080fd5b6100596100543660046105b3565b610081565b005b6100596100693660046105b3565b6101bb565b61005961007c3660046105f5565b61023c565b336001600160a01b037f000000000000000000000000000000000000000000000000000000000000000016146100ca5760405163f21ae66560e01b815260040160405180910390fd5b60005b6100da6060830183610675565b90508110156101b75760006100f26060840184610675565b83818110610102576101026106c6565b905060200281019061011491906106dc565b61011d90610784565b9050600081600001516001600160a01b031682602001516040516101419190610856565b6000604051808303816000865af19150503d806000811461017e576040519150601f19603f3d011682016040523d82523d6000602084013e610183565b606091505b50509050806101ad5760405163456bb89160e01b8152600481018490526024015b60405180910390fd5b50506001016100cd565b5050565b60405163a6d27b1960e01b81526001600160a01b037f0000000000000000000000000000000000000000000000000000000000000000169063a6d27b1990610207908490600401610a33565b600060405180830381600087803b15801561022157600080fd5b505af1158015610235573d6000803e3d6000fd5b5050505050565b6000808061024c84860186610b42565b92509250925060008361025f5786610261565b875b90506001600160a01b038216301461028d576102886001600160a01b0384168333846102ab565b6102a1565b6102a16001600160a01b038416338361031c565b5050505050505050565b6040516001600160a01b03808516602483015283166044820152606481018290526103169085906323b872dd60e01b906084015b60408051601f198184030181529190526020810180516001600160e01b03166001600160e01b031990931692909217909152610351565b50505050565b6040516001600160a01b03831660248201526044810182905261034c90849063a9059cbb60e01b906064016102df565b505050565b60006103a6826040518060400160405280602081526020017f5361666545524332303a206c6f772d6c6576656c2063616c6c206661696c6564815250856001600160a01b03166104239092919063ffffffff16565b80519091501561034c57808060200190518101906103c49190610b8d565b61034c5760405162461bcd60e51b815260206004820152602a60248201527f5361666545524332303a204552433230206f7065726174696f6e20646964206e6044820152691bdd081cdd58d8d9595960b21b60648201526084016101a4565b6060610432848460008561043a565b949350505050565b60608247101561049b5760405162461bcd60e51b815260206004820152602660248201527f416464726573733a20696e73756666696369656e742062616c616e636520666f6044820152651c8818d85b1b60d21b60648201526084016101a4565b600080866001600160a01b031685876040516104b79190610856565b60006040518083038185875af1925050503d80600081146104f4576040519150601f19603f3d011682016040523d82523d6000602084013e6104f9565b606091505b509150915061050a87838387610515565b979650505050505050565b6060831561058457825160000361057d576001600160a01b0385163b61057d5760405162461bcd60e51b815260206004820152601d60248201527f416464726573733a2063616c6c20746f206e6f6e2d636f6e747261637400000060448201526064016101a4565b5081610432565b61043283838151156105995781518083602001fd5b8060405162461bcd60e51b81526004016101a49190610baa565b6000602082840312156105c557600080fd5b813567ffffffffffffffff8111156105dc57600080fd5b8201608081850312156105ee57600080fd5b9392505050565b6000806000806060858703121561060b57600080fd5b8435935060208501359250604085013567ffffffffffffffff8082111561063157600080fd5b818701915087601f83011261064557600080fd5b81358181111561065457600080fd5b88602082850101111561066657600080fd5b95989497505060200194505050565b6000808335601e1984360301811261068c57600080fd5b83018035915067ffffffffffffffff8211156106a757600080fd5b6020019150600581901b36038213156106bf57600080fd5b9250929050565b634e487b7160e01b600052603260045260246000fd5b60008235603e198336030181126106f257600080fd5b9190910192915050565b634e487b7160e01b600052604160045260246000fd5b6040805190810167ffffffffffffffff81118282101715610735576107356106fc565b60405290565b604051601f8201601f1916810167ffffffffffffffff81118282101715610764576107646106fc565b604052919050565b6001600160a01b038116811461078157600080fd5b50565b60006040823603121561079657600080fd5b61079e610712565b82356107a98161076c565b815260208381013567ffffffffffffffff808211156107c757600080fd5b9085019036601f8301126107da57600080fd5b8135818111156107ec576107ec6106fc565b6107fe601f8201601f1916850161073b565b9150808252368482850101111561081457600080fd5b80848401858401376000908201840152918301919091525092915050565b60005b8381101561084d578181015183820152602001610835565b50506000910152565b600082516106f2818460208701610832565b6000808335601e1984360301811261087f57600080fd5b830160208101925035905067ffffffffffffffff81111561089f57600080fd5b8060051b36038213156106bf57600080fd5b818352600060208085019450826000805b868110156108fd5782356fffffffffffffffffffffffffffffffff81168082146108ea578384fd5b89525096830196918301916001016108c2565b50959695505050505050565b8183526000602080850194508260005b8581101561094757813561092c8161076c565b6001600160a01b031687529582019590820190600101610919565b509495945050505050565b81835260006020808501808196508560051b810191508460005b87811015610a265782840389528135603e1988360301811261098d57600080fd5b87016040813561099c8161076c565b6001600160a01b031686528187013536839003601e190181126109be57600080fd5b90910186810191903567ffffffffffffffff8111156109dc57600080fd5b8036038313156109eb57600080fd5b818888015280828801526060915080838389013760008782018301529a87019a601f01601f191690950190940193509084019060010161096c565b5091979650505050505050565b6000602080835260a08301610a488586610868565b6080868501529182905260059160c08087019082851b880101836000805b85811015610ab7578a840360bf19018552610a818388610868565b8086526001600160fb1b03811115610a97578384fd5b891b8082878d0137958a0195949094018901935091880191600101610a66565b505050610ac6868a018a610868565b96509450601f19935083888203016040890152610ae48187876108b1565b9550505050610af66040870187610868565b925081868503016060870152610b0d848483610909565b935050610b1d6060870187610868565b92508186850301608087015261050a848483610952565b801515811461078157600080fd5b600080600060608486031215610b5757600080fd5b8335610b6281610b34565b92506020840135610b728161076c565b91506040840135610b828161076c565b809150509250925092565b600060208284031215610b9f57600080fd5b81516105ee81610b34565b6020815260008251806020840152610bc9816040850160208701610832565b601f01601f1916919091016040019291505056fea264697066735822122003fbe816698c0b81ece0a4b9b9046a4d186814fc6ef7613008f8dea6c89a788464736f6c63430008100033",
        "linkReferences": {}
    },
    "methodIdentifiers": {
        "executeSandboxMulticall((bytes32[][],uint128[],address[],(address,bytes)[]))": "4d50511b",
        "sandboxRouterCallback((bytes32[][],uint128[],address[],(address,bytes)[]))": "029de720",
        "uniswapV3SwapCallback(int256,int256,bytes)": "fa461e33"
    },
    "id": 39
}